:100000000C9444000C9461000C9461000C94610009
:100010000C9461000C94D9050C9461000C9461005F
:100020000C9461000C9461000C9461000C946100CC
:100030000C9461000C9453120C9461000C940812FF
:100040000C9470000C9461000C9461000C9461009D
:100050000C946100646174612073657420666F7232
:10006000207772697474696E6720746F2074686594
:1000700020736420636172642073696E676C65200D
:10008000736563746F72000011241FBECFE5D8E062
:10009000DEBFCDBF11E0A0E6B0E0E6EBFFE202C0BC
:1000A00005900D92A833B107D9F725E0A8E3B1E098
:1000B00001C01D92AE3AB207E1F70E94C40C0C9445
:1000C000D9170C940000853641F481E487B98EE895
:1000D00086B980B78F7080BF339A0895369A089595
:1000E0001F920F920FB60F9211242F933F934F93AD
:1000F0005F936F937F938F939F93AF93BF93EF9390
:10010000FF9384B18093400125B120933F0190E09B
:10011000922B90933E0180933D0120913C0122302F
:1001200050F190934701809346011092380110924C
:10013000390110923A0110923B0110923C0121E0EA
:100140002093410127B12F71213041F49093450153
:100150008093440187B1807E82600BC027B12F71EC
:10016000223061F4909343018093420187B1807EF5
:10017000816087B903C02F5F20933C010E946E000D
:10018000FF91EF91BF91AF919F918F917F916F916F
:100190005F914F913F912F910F900FBE0F901F9045
:1001A000189580914E01882329F081E080934A01BF
:1001B00080914E01089580916400813009F0C6C09D
:1001C000CC9934C080934B0190914C01913051F007
:1001D0001092500110924F0110924E0110924D0159
:1001E00080934C0180914F01909150010196909322
:1001F000500180934F0120916000309161002817D9
:10020000390750F481E080934E012E5F3F4F3093C9
:10021000500120934F01EEC12091620030916300A4
:100220002817390708F0E5C281E0E1C2CD992DC059
:1002300080934B0180914C01823059F01092500113
:1002400010924F0110924E0110924D0182E0809366
:100250004C0180914F019091500101969093500173
:1002600080934F0120916000309161002817390779
:1002700010F482E0B6C1209162003091630028172B
:10028000390708F0B6C282E0B2C2CE992DC0809381
:100290004B0180914C01833059F010925001109223
:1002A0004F0110924E0110924D0183E080934C015A
:1002B00080914F019091500101969093500180934D
:1002C0004F0120916000309161002817390710F428
:1002D00083E087C1209162003091630028173907BD
:1002E00008F087C283E083C2CF992DC080934B0171
:1002F00080914C01843059F01092500110924F01BE
:1003000010924E0110924D0184E080934C01809137
:100310004F019091500101969093500180934F01AD
:1003200020916000309161002817390710F484E0B3
:1003300058C120916200309163002817390708F0F6
:1003400058C284E054C28093640053C2823009F0E2
:10035000C0C0CC992EC081E080934B0180914C01AC
:10036000853059F01092500110924F0110924E01B9
:1003700010924D0185E080934C0180914F01909146
:10038000500101969093500180934F01209160009D
:10039000309161002817390710F485E022C12091BF
:1003A0006200309163002817390708F022C285E007
:1003B0001EC2CD992EC081E080934B0180914C01EB
:1003C000863059F01092500110924F0110924E0158
:1003D00010924D0186E080934C0180914F019091E5
:1003E000500101969093500180934F01209160003D
:1003F000309161002817390710F486E0F2C020918F
:100400006200309163002817390708F0F2C186E0D6
:10041000EEC1CE992EC081E080934B0180914C01BA
:10042000873059F01092500110924F0110924E01F6
:1004300010924D0187E080934C0180914F01909183
:10044000500101969093500180934F0120916000DC
:10045000309161002817390710F487E0C2C020915D
:100460006200309163002817390708F0C2C187E0A5
:10047000BEC1CF99BEC181E080934B0180914C01F8
:10048000883059F01092500110924F0110924E0195
:1004900010924D0188E080934C0180914F01909122
:1004A000500101969093500180934F01209160007C
:1004B000309161002817390710F488E092C020912C
:1004C0006200309163002817390708F092C188E074
:1004D0008EC1833009F0CBC0CC992EC081E08093CF
:1004E0004B0180914C01893059F0109250011092CB
:1004F0004F0110924E0110924D0189E080934C0102
:1005000080914F01909150010196909350018093FA
:100510004F0120916000309161002817390710F4D5
:1005200089E05FC02091620030916300281739078D
:1005300008F05FC189E05BC1CD992EC081E0809356
:100540004B0180914C018A3059F010925001109269
:100550004F0110924E0110924D018AE080934C01A0
:1005600080914F019091500101969093500180939A
:100570004F0120916000309161002817390710F475
:100580008AE02FC02091620030916300281739075C
:1005900008F02FC18AE02BC1CE9939C081E0809349
:1005A0004B0180914C018B3059F010925001109208
:1005B0004F0110924E0110924D018BE080934C013F
:1005C00080914F019091500101969093500180933A
:1005D0004F0120916000309161002817390768F4BD
:1005E0008BE080934E012E5F3F4F3093500120935C
:1005F0004F0181E080934D01FCC020916200309159
:1006000063002817390708F0F4C08BE0F0C0CF99D9
:10061000F0C081E080934B0180914C018C3059F007
:100620001092500110924F0110924E0110924D0104
:100630008CE080934C0180914F0190915001019684
:100640009093500180934F012091600030916100A0
:100650002817390710F48CE0C4CF20916200309144
:1006600063002817390708F0C4C08CE0C0C084308C
:1006700009F0BFC0CC992EC081E080934B018091DE
:100680004C018D3059F01092500110924F01109290
:100690004E0110924D018DE080934C0180914F01ED
:1006A0009091500101969093500180934F012091B9
:1006B0006000309161002817390710F48DE091CF68
:1006C00020916200309163002817390708F091C02B
:1006D0008DE08DC0CD992EC081E080934B0180913B
:1006E0004C018E3059F01092500110924F0110922F
:1006F0004E0110924D018EE080934C0180914F018C
:100700009091500101969093500180934F01209158
:100710006000309161002817390710F48EE061CF36
:1007200020916200309163002817390708F061C0FA
:100730008EE05DC0CE992DC081E080934B01809109
:100740004C018F3059F01092500110924F011092CD
:100750004E0110924D018FE080934C0180914F012A
:100760009091500101969093500180934F012091F8
:100770006000309161002817390710F48FE031CF05
:1007800020916200309163002817390790F58FE0BF
:100790002EC0CF992EC081E080934B0180914C01F7
:1007A000803159F01092500110924F0110924E0179
:1007B00010924D0180E180934C0180914F01909106
:1007C000500101969093500180934F012091600059
:1007D000309161002817390710F480E102CF209191
:1007E0006200309163002817390718F480E1809384
:1007F0004E0180914A018130C1F410924E018091E6
:1008000048019091490101969093490180934801D4
:100810008091480190914901853F914030F01092BC
:1008200049011092480110924A0180914B01813098
:1008300051F01092500110924F0110924E011092FF
:100840004D0110924C0110924B010895CF93DF930C
:10085000D82FC62F0E945F0480ED0E94780481117A
:1008600002C080E00DC08D2F0E9478048823C9F358
:100870008C2F0E9478048823A1F30E94690481E0F0
:10088000DF91CF9108950F931F9300E010E098013E
:10089000061717072807390731F000000F5F1F4FB1
:1008A0002F4F3F4FF5CF1F910F91089520EA3FE062
:1008B000E22FF32F3197F1F78A95D1F70895A09899
:1008C00085E090E0FC013197F1F7A19A0197F1F7EB
:1008D0000895A19A85E090E0FC013197F1F7A09886
:1008E000E3E0F0E03197F1F7A1980197F1F708956F
:1008F00098E043E050E025E030E0A09AFA0131971B
:10090000F1F787FF02C0A19801C0A19AF9013197C0
:10091000F1F7A098F9013197F1F7989BFECF880F76
:10092000915059F7A09A83E090E00197F1F7A198D0
:1009300025E030E0C9010197F1F7A098C9010197BE
:10094000F1F783B3A09AF9013197F1F78695817099
:1009500091E089270895C09888B388BBC19881E049
:100960000E945604B89A87B387BBB99A81E00C9469
:100970005604CF93C82F82E00E945604C09888B3D3
:1009800088BBC19A81B3806F81BB82B38F709C2F6B
:10099000907F892B82BBC198C19A82B3282F2F7078
:1009A00030E1C39FC0011124822B82BBC198CF913B
:1009B0000895CF93C82F81E00E94560400000000E4
:1009C0000000000000000000000000000000000027
:1009D0000000000000000000000000000000000017
:1009E0000000000000000000000000000000000007
:1009F00000000000C09A88B388BBC19A00000000C4
:100A000000000000000000000000000000000000E6
:100A1000000000000000000081B3806F81BB82B342
:100A20008F709C2F907F892B82BB000000000000FC
:100A300000000000000000000000000000000000B6
:100A4000000000000000C19800000000000000004D
:100A50000000000000000000000000000000000096
:100A600000000000C19A000000000000000000002B
:100A70000000000000000000000000000000000076
:100A8000000082B3282F2F7030E1C39FC0011124D2
:100A9000822B82BB0000000000000000000000006C
:100AA0000000000000000000000000000000000046
:100AB000C1980000000000000000000000000000DD
:100AC0000000000000000000000000000000CF91C6
:100AD000089581E00E9456040E94AB0480E00E94C9
:100AE000B90481E00E94560488E20E94B90481E0C2
:100AF0000E94B90484E60E94560481E00E945604D4
:100B000086E00E94B90481E00E9456048CE00E94B5
:100B1000B90481E00E94560481E00E94560481E0FD
:100B20000C94560481E00C94B904623031F06330C7
:100B300031F0613029F4805C03C08C5E01C08C5AB6
:100B400080680C94B9040F931F93CF93DF930097A1
:100B500059F0EC018C01060F111DC017D10721F0CF
:100B600089910E94D904F9CFDF91CF911F910F9104
:100B70000895F894D498DC9AD598DD9AD698DE9AA0
:100B8000D798DF9AC498BC9AC59ABD9AC69ABE985F
:100B9000C79ABF9ABA98C29ABB98C39A93988B9AED
:100BA0008FE590E00E94481280E489BF83E085BD14
:100BB00008951F920F920FB60F9211242F933F9317
:100BC0004F935F936F937F938F939F93AF93BF9355
:100BD000EF93FF9380917E0190917F010196909316
:100BE0007F0180937E018091830190918401019621
:100BF000909384018093830180917C0190917D0189
:100C0000019690937D0180937C010E942D120E9499
:100C1000DB008091830190918401C39738F010929A
:100C200084011092830181E08093820180917E0192
:100C300090917F01803A9740E0F081E080938001BD
:100C400010927F0110927E01809361018091660174
:100C500090916701A0916801B09169010196A11D71
:100C6000B11D8093660190936701A0936801B093D2
:100C7000690180917C0190917D018139914038F02A
:100C800081E080937B0110927D0110927C01FF91A5
:100C9000EF91BF91AF919F918F917F916F915F91F4
:100CA0004F913F912F910F900FBE0F901F9018956D
:100CB000FC01680F791F8FEF9FEFE617F70791F0A0
:100CC0002191822728E030E0482F41709695879542
:100CD000442321F041E0842740EA94272150310940
:100CE00099F7EBCF0895DF92EF92FF920F931F9346
:100CF000CF93DF93CDB7DEB764970FB6F894DEBF1E
:100D00000FBECDBF8B01D42E4AE09E012F5F3F4F17
:100D10007901B9010E947A14F70101900020E9F7E6
:100D20003197CF018E199F09382FF801D801202F54
:100D300050E34A2F401B4D1510F45D93FACF3D153B
:100D4000E8F08D19D701A80FB11D8E2F821B8D15CC
:100D500018F48D918193F9CFF801ED0DF11D1082FA
:100D600064960FB6F894DEBF0FBECDBFDF91CF9172
:100D70001F910F91FF90EF90DF9008953D2D381B4C
:100D8000232F432F50E0480F511D622F631B822FEA
:100D900090E08417950704F7D801A80FB91FF70151
:100DA000E60FF11D60816C932F5FEFCFDF92EF9222
:100DB000FF920F931F93CF93DF93CDB7DEB7649766
:100DC0000FB6F894DEBF0FBECDBFDC01CB018A01A8
:100DD000D22E4AE09E012F5F3F4F7901B9010E9458
:100DE0007A14F70101900020E9F73197CF018E19AD
:100DF0009F09382FF801D801202F50E34A2F401BBC
:100E00004D1510F45D93FACF3D15E8F08D19D7011B
:100E1000A80FB11D8E2F821B8D1518F48D91819313
:100E2000F9CFF801ED0DF11D108264960FB6F8941C
:100E3000DEBF0FBECDBFDF91CF911F910F91FF900D
:100E4000EF90DF9008953D2D381B232F432F50E066
:100E5000480F511D622F631B822F90E08417950766
:100E600004F7D801A80FB91FF701E60FF11D608143
:100E70006C932F5FEFCF462F50E06AE070E00C9448
:100E80007B17462F50E06AE070E00C946517462F00
:100E900050E06EE170E00C947B17462F50E06EE15D
:100EA00070E00C946517AF92BF92CF92DF92EF92F1
:100EB000FF920F931F93CF93DF93EC01419764F060
:100EC0007894DF91CF911F910F91FF90EF90DF9079
:100ED000CF90BF90AF900895DB01CA010197A1099F
:100EE000B1098E309742A105B10550F7CB01BA0187
:100EF000F8940E9418118AE1E82E83E0F82E00E0B1
:100F000010E097E6C92E90E0D92E2BEEA22E22E01B
:100F1000B22E0C171D07A0F68FE1F701A8EAB2E088
:100F200001900D928A95E1F78091C6021F928F93EE
:100F30008091AB021F928F938091AC021F928F938E
:100F40008091AD021F928F938091AA021F928F937E
:100F50008091A9021F928F938091A8021F928F9374
:100F6000DF92CF92BF92AF920E949F148BEE92E0DD
:100F70000E94FC110F5F1F4F8FE1E80EF11C8DB72F
:100F80009EB742960FB6F8949EBF0FBE8DBFC1CFDD
:100F90008F929F92AF92BF92CF92DF92EF92FF9289
:100FA000CF93DF9300D000D000D0CDB7DEB78090D4
:100FB000100390901103A0901203B090130384E0EB
:100FC000B694A794979487948A95D1F7C12CD12C85
:100FD0007601C814D904EA04FB0441F144E0BE01DF
:100FE0006F5F7F4FC6010E9473068FE890E00E94FA
:100FF000FC11CE0101960E94FC118DEA90E00E9446
:10100000FC11B701A6018FE090E00E9453072FEF7B
:1010100083EC99E0215080409040E1F700C000004F
:101020002FEFC21AD20AE20AF20AD3CF26960FB6DF
:10103000F894DEBF0FBECDBFDF91CF91FF90EF9050
:10104000DF90CF90BF90AF909F908F90089580E0F9
:1010500090E02FE1FC01E65EFC4F208301968115B4
:1010600032E09307B9F78EE0ECE0F3E0AAE1B3E0F9
:1010700001900D928A95E1F7F89460E070E0CB0161
:101080000E9445118FEF91EE24E081509040204066
:10109000E1F700C0000078940895CF93DF93F894AF
:1010A00060E070E0CB010E9418112FEF81EE94E018
:1010B000215080409040E1F700C000007894CCE0DF
:1010C000D3E08EE0EAE1F3E0DE0101900D928A9533
:1010D000E1F78F818F938E818F938D818F938C8198
:1010E0008F9380EB90E09F938F9380E992E09F93A2
:1010F0008F930E949F148DB79EB708960FB6F894F1
:101100009EBF0FBE8DBF80E992E0DF91CF910C941E
:10111000FC111092100310921103109212031092FE
:1011200013030C942708CF93DF9300D000D0CDB7E2
:10113000DEB719821A821B821C8264E0CE010196FE
:101140000E944D0769817A818B819C810F900F905D
:101150000F900F90DF91CF910895809161018130C0
:1011600009F071C010926101209162013091630118
:1011700022303105A8F0A0916401B09165010E9470
:10118000101324E630E040E050E00E94CF1220939C
:10119000510130935201409353015093540108C0C0
:1011A0001092510110925201109253011092540169
:1011B00020915101309152014091530150915401BD
:1011C0002432310541055105F0F1AAE0B0E00E945A
:1011D0001F1324E230E040E050E00E94CF12309331
:1011E00058012093570180915B0190915C01280F79
:1011F000391F30935C0120935B01213187E238076E
:1012000010F1C90160E177E20E94BB1270935601B0
:101210006093550140EF58ED649FC001659F900DAC
:10122000749F900D1124280F391F30935C01209377
:101230005B018091590190915A01680F791F709359
:101240005A016093590108952F923F924F925F92F5
:101250006F927F928F929F92AF92BF92CF92DF92C6
:10126000EF92FF920F931F93CF93DF93CDB7DEB72B
:10127000C858D1090FB6F894DEBF0FBECDBF2C0100
:101280009E012F5F3F4F590189E1D9011D928A9537
:10129000E9F7FE01EA58FF4FEF96FFAFEEAFEF9789
:1012A00095E0292F11922A95E9F73E0131E7630E67
:1012B000711CD301E92F1D92EA95E9F76E01FEE555
:1012C000CF0ED11C88E0D601E82F1D92EA95E9F7F0
:1012D0009E012A5A3F4FC158DF4F39832883CF5789
:1012E000D040D9011D928A95E9F7EC961FAEEC9794
:1012F000ED961FAEED97FE01E45BFF4F8AE0DF0144
:10130000282F1D922A95E9F71E0132E4230E311C85
:10131000D101E82F1D92EA95E9F7FE01F896DF0169
:10132000282F1D922A95E9F77E013EE2E30EF11C7B
:10133000D701E82F1D92EA95E9F7FE01E459FF4F26
:10134000DF011D929A95E9F79E012C5D3F4FCF5723
:10135000DF4F39832883C158D040D901282F1D92EF
:101360002A95E9F79E01265E3F4FD9011D928A9585
:10137000E9F7D2018C918A3309F061C261317105BC
:1013800008F4E7C2CC57DF4FB982A882C458D040D6
:1013900001E010E04B01B5E08B1A9108CD57DF4F0B
:1013A000E883C358D040C857DF4FF883C858D040AF
:1013B000B2010815190578F5600F711F42E050E081
:1013C000CD57DF4F8881C358D040C857DF4F988131
:1013D000C858D0400E946B1440E150E0B101CD5795
:1013E000DF4F8881C358D040C857DF4F9881C85815
:1013F000D0400E942A13CC57DF4FE881F981C458AE
:10140000D0406193CC57DF4FF983E883C458D04074
:101410000E5F1F4FCDCF680D791D44E050E0C7012E
:101420000E946B1440E150E0B101C7010E942A13F1
:10143000B40176956795C5010E94580698278927BB
:1014400098279F938F930AED10E01F930F93CE5729
:10145000DF4FF881C258D040FF93CF57DF4F28812C
:10146000C158D0402F930E949F1442E050E0B20137
:101470006F5F7F4FCE018A589F4F0E946B1440E1EF
:1014800050E0B101CE018A589F4F0E942A13CC57D9
:10149000DF4F688379838A839B83C458D0400F9041
:1014A0000F900F900F900F900F90CC57DF4F8881C7
:1014B0009981C458D0408536910509F013C242E0A5
:1014C00050E0B2016D5F7F4FC3010E946B1440E199
:1014D00050E0B101C3010E942A134B015C0193E06B
:1014E0008916910409F0FEC144E050E0B2016B5F3F
:1014F0007F4FC6010E946B1440E150E0B101C6016C
:101500000E942A136B017C0161347C4909F0EAC115
:101510001F9281E08F931F930F93C058DF4FB881C4
:10152000C058D040BF93C158DF4FE881CF57D0405B
:10153000EF930E949F1444E050E0B201675F7F4F39
:10154000CE018A5A9F4F0E946B148E0105581F4F7F
:1015500042E050E0B201655F7F4FC8010E946B140A
:10156000D80111968C911197880F805311968C9306
:1015700040E150E0B101CE018A5A9F4F0E942A13E8
:10158000CD57DF4F6883C358D0401B01CB01880F74
:10159000991F9F938F938FED90E09F938F931F934D
:1015A0000F930E949F140FB6F894DEBF0FBECDBFFD
:1015B000FAE12F16310408F095C1939A2FEF31EE1E
:1015C00084E0215030408040E1F700C000001092DC
:1015D000940161E271E084E991E00E94501442E0DC
:1015E00050E0BE016A587F4F84E991E00E945B148D
:1015F00042E050E0B30184E991E00E945B1484E989
:1016000091E00E9493121092940142E050E0B801E0
:1016100084E991E00E945B1484E991E00E949312B6
:10162000CC57DF4F9881C458D04090932B058092BF
:101630002C058CE980932D05C0922E0510922F0564
:10164000CD57DF4FA881C358D040A093300506E0A6
:1016500010E0A12CB12C3AEDC32E30E0D32E7E0148
:10166000BAE1EB0EF11CA214B30408F0A2C0A1145D
:10167000B104E9F480915D0190915E01A0915F0158
:10168000B0916001CD01AA27BB27BF93AF939F9371
:101690008F93DF92CF92FF92EF920E949F14C70127
:1016A0000E94FC1180915F01909160011DC0F1E0EA
:1016B000AF16B10431F5809160018F9380915F0185
:1016C0008F9380915E018F9380915D018F93DF9264
:1016D000CF92FF92EF920E949F14C7010E94FC11CB
:1016E00080915D0190915E01F801E55DFA4F908374
:1016F00081830E5F1F4F0FB6F894DEBF0FBECDBFC4
:1017000054C032E0A316B104A1F480915A018F9322
:10171000809159018F93DF92CF92FF92EF920E94B6
:101720009F14C7010E94FC118091590190915A01A8
:101730002FC083E0A816B104A1F4809165018F93B6
:10174000809164018F93DF92CF92FF92EF920E947B
:101750009F14C7010E94FC11809164019091650162
:1017600017C094E0A916B10401F5809163018F932D
:10177000809162018F93DF92CF92FF92EF920E944D
:101780009F14C7010E94FC11809162019091630136
:10179000F801E55DFA4F908381830E5F1F4F0F9034
:1017A0000F900F900F900F900F90AFEFAA1ABA0AF8
:1017B0005ACFF801E55DFA4F84E0C82EC08292ED61
:1017C000D92ED182B8016E5F7F4F8BE295E00E94E7
:1017D00058069827892798279F938F930AED10E042
:1017E0001F930F937E01B8E3EB0EF11CFF92EF9273
:1017F0000E949F14CF92DF921F930F938E01045B80
:101800001F4F1F930F930E949F14C8010E94FC1149
:10181000C7010E94FC118DEA90E00E94FC11EFEFDD
:10182000F1EE24E0E150F0402040E1F700C000007C
:1018300093980FB6F894DEBF0FBECDBF53C0853668
:10184000C9F46930710509F084C0D20111964C9138
:10185000119712965C91129713966C9113971696A6
:101860007C91169715968C91159714969C910E94D1
:101870000F1008C0893741F46330710509F069C061
:101880000E944D0881E066C08B3759F463307105C2
:1018900009F05FC081E090E09093260580932505D4
:1018A00059C08A3769F46330710509F052C041E0CC
:1018B00050E060E070E08FE090E00E945307E2CFDC
:1018C0008C3739F46330710509F043C00E948908F0
:1018D00009C08D3739F463307105D9F510922605AA
:1018E00010922505F20180818F3729F442E050E003
:1018F00060E070E006C0803849F443E050E060E00A
:1019000070E08FE090E00E94530723C0843851F4C8
:101910002AE030E040E050E060E070E0CB010E945F
:10192000DF1017C0813819F40E94C80712C086382A
:1019300061F464E570E08AE193E00E94491460E09C
:1019400070E0CB010E94451104C0873311F4000000
:10195000FECF8FEFC857DF4F0FB6F894DEBF0FBE34
:10196000CDBFDF91CF911F910F91FF90EF90DF904E
:10197000CF90BF90AF909F908F907F906F905F902F
:101980004F903F902F900895CF93DF93CDB7DEB760
:101990006B970FB6F894DEBF0FBECDBF2FEF81EE71
:1019A00094E0215080409040E1F700C000000E9488
:1019B000B9050E94760F87E690E00E9448121092C7
:1019C00079050E9469058AE00E94560485E60E9416
:1019D00063000E946E0060E080E00E94950564E173
:1019E00084EE90E00E94A305D498DC9AD598DD9A05
:1019F000D698DE9AD798DF9AC498BC9AC59ABD9AB1
:101A0000C69ABE98C79ABF9ABA98C29ABB98C39A08
:101A100093988B9A66E083E795E00E944107809156
:101A20007305909174058A3A9A4AB8F088ED91E06E
:101A3000909374058093730582E393E09093760509
:101A40008093750581EF97E09093780580937705F3
:101A500066E083E795E00E943B070E94930860934D
:101A60005D0170935E0180935F0190936001611549
:101A700071058B4A9A4A40F010925D0110925E0106
:101A800010925F011092600188E290E00E94751749
:101A900090935A01809359018B3A9A4A20F0109200
:101AA0005A011092590178949FE088E10FB6F8949A
:101AB000A89581BD0FBE91BD0E9492058FEF99EF51
:101AC00020E0815090402040E1F700C00000A89540
:101AD0008FEF99EF20E0815090402040E1F700C067
:101AE0000000A8958FEF99EF20E0815090402040B2
:101AF000E1F700C00000A8950E9492050AE010E0FE
:101B0000939880918201813009F04FC11092820137
:101B1000809181018A3030F4809181018F5F8093C0
:101B2000810102C01092810181E00E947E0F90939A
:101B300079018093780181E00E947E0F9093790172
:101B400080937801209171012A3080F420917201F4
:101B500030917301820F931F9093730180937201F0
:101B6000809171018F5F8093710122C08091720119
:101B700090917301B8010E94BB129B01709379018F
:101B800060937801A4E6B0E00E94101320917305E1
:101B90003091740540E050E00E94F11230936501ED
:101BA00020936401109271011092730110927201DE
:101BB00080E00E947E0F90936E0180936D018FEF05
:101BC00099EF20E0815090402040E1F700C00000F4
:101BD00080916C018A30D8F480E00E947E0F90934F
:101BE0006E0180936D0120916D0130916E018091A5
:101BF0006F0190917001820F931F909370018093F9
:101C00006F0180916C018F5F80936C0111C0809196
:101C10006F0190917001B8010E94BB1270936B012B
:101C200060936A0110926C011092700110926F0122
:101C300020916A0130916B013093770120937601F6
:101C400030937501209374012115310539F080918D
:101C50007705909178052817390728F410926301C9
:101C60001092620116C0281B390B30937701209324
:101C70007601A8EEB3E00E94101320917505309113
:101C8000760540E050E00E94F1123093630120930A
:101C9000620160E080E00E94950564E189EF90E0D8
:101CA0000E94A30562E080E00E94950543E0BE012A
:101CB0006F5E7F4F80916401909165010E94730671
:101CC00066E08EE091E00E94A30562E0CE014196BD
:101CD0000E94A30561E087EF90E00E94A30561E008
:101CE000CE0143960E94A3056AE08FEC90E00E942B
:101CF000A30563E080E00E94950566E085E191E040
:101D00000E94A30543E0BE01665F7F4F80916201A0
:101D1000909163010E94730662E0CE010A960E94D0
:101D2000A30561E087EF90E00E94A30561E0CE018A
:101D30000C960E94A3056AE08FEC90E00E94A30538
:101D400061E080E00E94950566E08CE191E00E94F0
:101D5000A30560915D0170915E0180915F0190919A
:101D6000600125E0AE014F5F5F4F0E94D60665E03F
:101D7000CE0101960E94A30542E0BE016F5F7F4F36
:101D80008091590190915A010E94730661E087EF9A
:101D900090E00E94A30562E0CE0101960E94A30597
:101DA00064E085ED90E00E94A30580917B01813085
:101DB00011F410927B018091590190915A0184365F
:101DC000910500F180915D0190915E01A0915F010C
:101DD000B09160010196A11DB11D80935D019093AA
:101DE0005E01A0935F01B0936001888F998FAA8FE5
:101DF000BB8F64E0CE0148960E94470710925A01BB
:101E0000109259010E94AD080E94D100882309F464
:101E100055C08130A9F18230D9F563E271E085E7E0
:101E200095E00E948D1166E083E795E00E943B07F4
:101E30008FEF93EC29E0815090402040E1F700C003
:101E400000006AE271E083E795E00E948D1166E090
:101E500083E795E00E943B078FEF93EC29E08150E8
:101E600090402040E1F700C0000061E371E087E7A7
:101E700095E00E948D1166E083E795E00E943B07A4
:101E80008FEF93EC29E0815090402040E1F714C09F
:101E9000833049F410926601109267011092680134
:101EA0001092690102C0843049F48FEF90E722E07C
:101EB000815090402040E1F700C0000080918A01ED
:101EC000813091F48AE795E00E94121280937A01A2
:101ED000882351F0682F70E0FB01E658FA4F10821A
:101EE0008AE795E00E942409A8950ACEBC9ABF9A79
:101EF000BE98BD9AC49AC798C59808951F93CF936A
:101F0000DF93C82FC49865E070E080E090E00E9405
:101F10004304C59A65E070E080E090E00E944304CD
:101F2000C79A65E070E080E090E00E944304C798A3
:101F300065E070E080E090E00E944304C59A65E0AF
:101F400070E080E090E00E944304C79A65E070E092
:101F500080E090E00E944304C79865E070E080E074
:101F600090E00E944304C11102C0C59801C0C59A07
:101F700065E070E080E090E00E944304C79A65E06D
:101F800070E080E090E00E944304C79865E070E054
:101F900080E090E00E944304C59A65E070E080E034
:101FA00090E00E944304C79A65E070E080E090E012
:101FB0000E944304C79865E070E080E090E00E94D2
:101FC0004304C79A65E070E080E090E00E9443041B
:101FD000C79865E070E080E090E00E944304C0E0B4
:101FE000D0E010E0C79A65E070E080E090E00E94E9
:101FF0004304B699C1601B3011F0CC0FDD1FC798A8
:1020000065E070E080E090E00E9443041F5F1C30B8
:1020100049F7C49ACE01DF91CF911F910895CF92D5
:10202000DF92EF92FF920F931F93CF93DF9300D035
:1020300000D000D0CDB7DEB7D42EC52E072FF82E96
:10204000E92E1AE0862F612F0E94AF12692F20E13E
:10205000829FC0011124682B80E00E9426048C2DF1
:10206000612F0E94AF12692F20E1829FC0011124CD
:10207000682B81E00E9426048D2D612F0E94AF12F3
:10208000692F20E1829FC0011124682B82E00E9409
:1020900026048E2D612F0E94AF12692F20E1829FAE
:1020A000C0011124682B84E00E9426048F2D612F2B
:1020B0000E94AF12692F20E1829FC0011124682B7A
:1020C00085E00E942604802F612F0E94AF12692FA5
:1020D00020E1829FC0011124682B86E026960FB66E
:1020E000F894DEBF0FBECDBFDF91CF911F910F914E
:1020F000FF90EF90DF90CF900C942604CF92DF9268
:10210000EF92FF92CF93DF93C82F6A017B018091FA
:102110002005811113C08FEE8C0F823040F088EEC5
:102120008C0F823020F080EE8C0F823038F489E002
:10213000CC0CDD1CEE1CFF1C8A95D1F7C4988C2FAB
:1021400080640E94ED118F2D0E94ED118E2D0E9452
:10215000ED118D2D0E94ED118C2D0E94ED11C830D6
:1021600011F487E801C085E90E94ED11F12C0E946D
:10217000F211D82F8F3F21F4FA94F110F8CF14C048
:10218000811112C0CA3381F40E94F21186FF04C08B
:1021900081E08093200502C0109220050E94F21178
:1021A0000E94F2110E94F2110E94F211C49A8D2F26
:1021B000DF91CF91FF90EF90DF90CF9008958F92B5
:1021C0009F92AF92BF92CF92DF92EF92FF926B01FC
:1021D0007C0149015A01AB01BC0180E20E947E10E2
:1021E00081111DC0B501A401415051096109710956
:1021F0004C0D5D1D6E1D7F1D81E20E947E108111C0
:102200000EC040E050E0BA0186E2FF90EF90DF9010
:10221000CF90BF90AF909F908F900C947E10FF90C6
:10222000EF90DF90CF90BF90AF909F908F900895E8
:10223000CF93DF93AB01BC0181E10E947E1081113D
:1022400021C0C498C0E0D0E00E94F2118E3F29F076
:102250002197D1F7C49A81E015C0C0E0D0E00E9478
:10226000F211FE01E65EFC4F80832196C11582E0EB
:10227000D807A9F70E94F2110E94F2110E94F211F0
:10228000C49A80E0DF91CF910895CF93DF93AB01A3
:10229000BC0188E10E947E1081113CC0C4988EEF81
:1022A0000E94ED11C0E0D0E0FE01E65EFC4F8081AF
:1022B0000E94ED112196C11522E0D207A9F78FEFF8
:1022C0000E94ED118FEF0E94ED110E94F211982FE4
:1022D0009F71953011F0C49A1DC0C0E0D0E00E94FB
:1022E000F211811103C02196D1F706C0C49A8FEF75
:1022F0000E94ED11C49808C0C49A81E00BC0CE01C1
:1023000001962196C9F3EC010E94F2118823B9F3DA
:10231000C49A80E0DF91CF9108950F931F93CF93DC
:10232000DF93EC018B01FB0101900020E9F731976D
:10233000E61BF70BE09387010E9492058881998143
:10234000909386018093850161E080E00E9495056D
:1023500044E060E975E0888199810E94730660918C
:102360008701C8010E94A30564E080E995E00E940E
:10237000A3050E94D1008823F1F0833031F48881D5
:10238000998197FD18C0019608C0843049F488816E
:1023900099818230910578F00197998388830BC0E9
:1023A000813039F4809185019091860199838883E9
:1023B0000DC0823059F02FEF83EC99E0215080401E
:1023C0009040E1F700C00000A895BECF80E090E00B
:1023D000DF91CF911F910F9108958FB9779BFECF19
:1023E0008FB108958FEF8FB9779BFECF8FB108958E
:1023F0005D9BFECF8CB90895CF93DF93EC0189915B
:10240000882319F00E94F811FACFDF91CF91089537
:102410001F920F920FB60F9211240F900FBE0F90C4
:102420001F901895AC0180918C018823A9F090E051
:1024300080918C01981760F4292F30E0F901E8565B
:10244000FA4F8081FA01E20FF31F80839F5FF0CF84
:1024500010928C0110928B01089520918B012130F4
:1024600081F480918801909189018233910530F443
:1024700001969093890180938801089520938A01A1
:102480000895109289011092880110928A0108958E
:1024900090BD89B988E98AB98EE880BD08955F9BAF
:1024A000FECF8CB108951F920F920FB60F92112498
:1024B0002F933F934F935F936F937F938F939F934C
:1024C000AF93BF93CF93DF93EF93FF9380918C01F2
:1024D000843110F010928C01C0918C01D0E00E94E8
:1024E0004F12C856DA4F888380918C018F5F80939A
:1024F0008C0181E080938B01FF91EF91DF91CF916F
:10250000BF91AF919F918F917F916F915F914F910B
:102510003F912F910F900FBE0F901F9018955D9BCC
:10252000FECF8CB908950F931F93CF93DF93FC01D7
:1025300001900020E9F73197CE2FC81BD82F8C01CE
:10254000802F8D1B8C1730F4F80181918F010E9430
:102550008F12F6CFDF91CF911F910F910895991BA4
:1025600079E004C0991F961708F0961B881F7A958A
:10257000C9F780950895AA1BBB1B51E107C0AA1F8C
:10258000BB1FA617B70710F0A61BB70B881F991F14
:102590005A95A9F780959095BC01CD010895A1E2C7
:1025A0001A2EAA1BBB1BFD010DC0AA1FBB1FEE1FCD
:1025B000FF1FA217B307E407F50720F0A21BB30B18
:1025C000E40BF50B661F771F881F991F1A9469F794
:1025D00060957095809590959B01AC01BD01CF01F0
:1025E0000895052E97FB1EF400940E94081357FDD2
:1025F00007D00E94CF1207FC03D04EF40C940813AE
:1026000050954095309521953F4F4F4F5F4F08951E
:1026100090958095709561957F4F8F4F9F4F08954E
:10262000A29FB001B39FC001A39F700D811D112413
:10263000911DB29F700D811D1124911D08950E945E
:102640001013A59F900DB49F900DA49F800D911D18
:1026500011240895A0E0B0E0E0E3F3E10C94A317A7
:102660005C016B017A016115710519F0FB01918321
:102670008083E114F10429F0C7010297839708F0E1
:10268000E5C0E5012196F5011081812F90E00E94BF
:102690004014892B11F05E01F4CF1D3229F42196EC
:1026A000F501118101E007C01B3221F4E5012296FA
:1026B000F501118100E0E114F10409F1F0E1EF16F8
:1026C000F10429F43FC010E3E114F10421F128E002
:1026D000E216F10401F154F4E2E0EE16F10421F502
:1026E000812C912CA12CB0E4BB2E3EC0FAE0EF1659
:1026F000F10439F020E1E216F104B1F430C01033F6
:1027000019F1FAE0EF2EF12CACEC8A2E982CA82CC3
:10271000ACE0BA2E29C078E0E72EF12C812C912C68
:10272000A12CE0E1BE2E20C060E070E080E090E8E7
:1027300097010F2C000C440B550B0E94CF1249013E
:102740005A0112C0103359F488818F7D883509F001
:10275000BACF19812296026080E1E82EF12C812CFB
:10276000912CA12C68E0B62E40E060E070E0CB0137
:1027700027010F2C000C66087708FE0150ED352E5E
:10278000310E29E0231570F42FEB210F2A3118F4B4
:1027900039EC332E06C02FE9210F2A3118F529EA2A
:1027A000322E310E232D30E02E153F05DCF447FD8F
:1027B00016C086169706A806B90670F0A301920106
:1027C0000E949217630D711D811D911D613071056D
:1027D000810520E8920710F04FEF01C041E02196FB
:1027E0001081CBCF202F2170C114D10471F044236C
:1027F00029F02197F601D183C08307C001FF19C0DA
:102800002297F601D183C08314C047FF12C0222350
:1028100029F060E070E080E090E804C06FEF7FEFA7
:102820008FEF9FE722E230E03093AD052093AC05B7
:1028300009C0222381F090958095709561957F4F16
:102840008F4F9F4F462F372F282F12C040E030E088
:1028500020E090E00DC097FFF5CF82E290E09093EA
:10286000AD058093AC056FEF7FEF8FEF9FE7EACF69
:10287000642F732F822FCDB7DEB7E1E10C94BF1721
:1028800091110C94A216803219F089508550C8F726
:102890000895FB01DC0105900D920020E1F70895F9
:1028A000FB01DC010D900020E9F7119701900D92DA
:1028B0000020E1F70895FB01DC010D900020E9F70D
:1028C00011974150504028F0019000200D92C9F717
:1028D00008951C920895FB01DC014150504048F0DE
:1028E00001900D920020C9F701C01D924150504047
:1028F000E0F70895BB274A3031F4992322F4BDE272
:10290000909581959F4F0C948614BB27FB0155270A
:10291000AA27880F991FAA1FA41710F0A41B83953C
:102920005051B9F7A05DAA3308F0A95DA1930097B3
:1029300079F7B111B1931192CB010C94BB16AEE0B3
:10294000B0E0E5EAF4E10C94B0170D891E8986E049
:102950008C831A8309838FEF9FE79E838D83AE015B
:10296000475E5F4F6F89788DCE0101960E94C1143A
:10297000EF81F885E00FF11F10822E96E4E00C94B1
:10298000CC17ABE0B0E0E7ECF4E10C94A2176C01DB
:102990007B018A01FC0117821682838181FFCCC1F1
:1029A000CE0101963C01F6019381F70193FD8591DB
:1029B00093FF81917F01882309F4BAC1853239F4EC
:1029C00093FD859193FF81917F01853229F4B601B2
:1029D00090E00E94CB16E7CF912C212C312CFFE107
:1029E000F315D8F08B3279F038F4803279F08332F5
:1029F000A1F4232D20611DC08D3261F0803369F474
:102A0000232D216016C0832D8260382EE32DE460D3
:102A10003E2E2AC0F32DF8601DC037FC2DC020EDDE
:102A2000280F2A3040F08E32B9F436FC81C1232DB4
:102A30002064322E19C036FE06C08AE0989E200D12
:102A40001124922E11C0EAE02E9E200D1124222E78
:102A5000F32DF0623F2E08C08C3621F4832D806860
:102A6000382E02C0883641F4F70193FD859193FF1B
:102A700081917F018111B3CF982F9F7D9554933021
:102A800028F40C5F1F4F9FE399830DC0833631F00C
:102A9000833771F0833509F059C021C0F801808176
:102AA00089830E5F1F4F88248394912C530113C098
:102AB0002801F2E04F0E511CF801A080B18036FED3
:102AC00003C0692D70E002C06FEF7FEFC5010E9467
:102AD000B0164C018201F32DFF773F2E16C028015E
:102AE00022E0420E511CF801A080B18036FE03C0E6
:102AF000692D70E002C06FEF7FEFC5010E94A5163F
:102B00004C01F32DF0683F2E820133FC1BC0822D57
:102B100090E088169906B0F4B60180E290E00E9439
:102B2000CB162A94F4CFF50137FC859137FE8191BD
:102B30005F01B60190E00E94CB1621102A9421E09B
:102B4000821A91088114910471F7E8C0843611F05B
:102B5000893641F5F80137FE07C0608171818281B5
:102B600093810C5F1F4F08C060817181072E000C9C
:102B7000880B990B0E5F1F4FF32DFF763F2E97FFAB
:102B800009C090958095709561957F4F8F4F9F4FAD
:102B9000F0683F2E2AE030E0A3010E940717882E3C
:102BA000861845C0853731F4232D2F7EB22E2AE0BA
:102BB00030E025C0932D997FB92E8F36C1F018F4DF
:102BC000883579F0B5C0803719F0883721F0B0C06A
:102BD000E92FE061BE2EB4FE0DC0FB2DF460BF2EC8
:102BE00009C034FE0AC0292F2660B22E06C028E094
:102BF00030E005C020E130E002C020E132E0F80121
:102C0000B7FE07C060817181828193810C5F1F4F85
:102C100006C06081718180E090E00E5F1F4FA301CC
:102C20000E940717882E8618FB2DFF773F2E36FE51
:102C30000DC0232D2E7FA22E891458F434FE0BC014
:102C400032FC09C0832D8E7EA82E05C0B82CA32C83
:102C500003C0B82C01C0B92CA4FE0FC0FE01E80DC2
:102C6000F11D8081803321F49A2D997EA92E09C00F
:102C7000A2FE06C0B394B39404C08A2D867809F0EE
:102C8000B394A3FC11C0A0FE06C0B21488F4280CB3
:102C9000922C9B180EC0B21460F4B60180E290E052
:102CA0000E94CB16B394F7CFB21418F42B1802C0BD
:102CB000982C212CA4FE10C0B60180E390E00E9465
:102CC000CB16A2FE17C0A1FC03C088E790E002C0AB
:102CD00088E590E0B6010CC08A2D867859F0A1FEF7
:102CE00002C08BE201C080E2A7FC8DE2B60190E059
:102CF0000E94CB16891438F4B60180E390E00E945C
:102D0000CB169A94F7CF8A94F301E80DF11D8081D8
:102D1000B60190E00E94CB168110F5CF222009F475
:102D200042CEB60180E290E00E94CB162A94F6CF04
:102D3000F6018681978102C08FEF9FEF2B96E2E12B
:102D40000C94BE17992788270895FC0105906150BF
:102D500070400110D8F7809590958E0F9F1F0895B1
:102D6000FC016150704001900110D8F7809590955A
:102D70008E0F9F1F0895DC01FC01672F719177234F
:102D8000E1F7329704C07C916D9370836291AE1726
:102D9000BF07C8F308950F931F93CF93DF93FB01F1
:102DA000238121FD03C08FEF9FEF2CC022FF16C0AF
:102DB00046815781248135814217530744F4A0810D
:102DC000B1819D012F5F3F4F318320838C932681FA
:102DD00037812F5F3F4F3783268314C08B01EC016F
:102DE000FB010084F185E02D0995892BE1F6D801DE
:102DF00016968D919C911797019617969C938E939A
:102E00001697CE01DF91CF911F910F910895FA018E
:102E1000AA27283051F1203181F1E8946F936E7F19
:102E20006E5F7F4F8F4F9F4FAF4FB1E03ED0B4E00A
:102E30003CD0670F781F891F9A1FA11D680F791F4B
:102E40008A1F911DA11D6A0F711D811D911DA11D5C
:102E500020D009F468943F912AE0269F112430196C
:102E6000305D3193DEF6CF010895462F4770405D07
:102E70004193B3E00FD0C9F7F6CF462F4F70405DB6
:102E80004A3318F0495D31FD4052419302D0A9F711
:102E9000EACFB4E0A6959795879577956795BA950B
:102EA000C9F700976105710508959B01AC010A2ED1
:102EB00006945795479537952795BA95C9F7620FA8
:102EC000731F841F951FA01D0895DC01CB01FC0119
:102ED000E199FECF06C0FFBBEEBBE09A31960DB282
:102EE0000D9241505040B8F70895A8E1B0E042E09B
:102EF00050E00C946717DC01CB0103C02D910E94B8
:102F0000861741505040D0F70895262FE199FECF03
:102F10009FBB8EBB2DBB0FB6F894E29AE19A0FBE11
:102F200001960895DB018F939F930E941F13BF9119
:102F3000AF91A29F800D911DA39F900DB29F900D08
:102F4000112408952F923F924F925F926F927F9239
:102F50008F929F92AF92BF92CF92DF92EF92FF92A9
:102F60000F931F93CF93DF93CDB7DEB7CA1BDB0B55
:102F70000FB6F894DEBF0FBECDBF09942A883988FA
:102F800048885F846E847D848C849B84AA84B98401
:102F9000C884DF80EE80FD800C811B81AA81B9810D
:102FA000CE0FD11D0FB6F894DEBF0FBECDBFED0121
:062FB0000895F894FFCF24
:102FB600E8036400012F00253032643A253032647C
:102FC6003A2530326420253032642F253032642F82
:102FD6002530326420637572723A25640D0A004208
:102FE6004C4F434B3A00424C4F434B4E4F3A2564AD
:102FF600204944583A25642044583A25640D0A006D
:103006005265636F726420436F756E743A25640D62
:103016000A005E5E00202020202020202020202084
:103026002020202020202020200025303458002574
:10303600303258004449474954495A45203078307F
:1030460030202E2E2E2E2E2E002020444320454E9C
:1030560045524759204D4554455220202000564F91
:103066004C54203A0043555252203A004B574820C0
:10307600203A00492D4641433A00562D4641433AEF
:08308600004F465345543A0087
:00000001FF
